{
  "contractName": "Certificate",
  "abi": [
    {
      "anonymous": false,
      "inputs": [
        {
          "indexed": false,
          "internalType": "uint256",
          "name": "id",
          "type": "uint256"
        },
        {
          "indexed": false,
          "internalType": "string",
          "name": "name",
          "type": "string"
        },
        {
          "indexed": false,
          "internalType": "string",
          "name": "course",
          "type": "string"
        },
        {
          "indexed": false,
          "internalType": "string",
          "name": "ipfsHash",
          "type": "string"
        }
      ],
      "name": "CertificateIssued",
      "type": "event"
    },
    {
      "inputs": [],
      "name": "certCounter",
      "outputs": [
        {
          "internalType": "uint256",
          "name": "",
          "type": "uint256"
        }
      ],
      "stateMutability": "view",
      "type": "function"
    },
    {
      "inputs": [
        {
          "internalType": "uint256",
          "name": "",
          "type": "uint256"
        }
      ],
      "name": "certificates",
      "outputs": [
        {
          "internalType": "uint256",
          "name": "id",
          "type": "uint256"
        },
        {
          "internalType": "string",
          "name": "name",
          "type": "string"
        },
        {
          "internalType": "string",
          "name": "course",
          "type": "string"
        },
        {
          "internalType": "string",
          "name": "ipfsHash",
          "type": "string"
        }
      ],
      "stateMutability": "view",
      "type": "function"
    },
    {
      "inputs": [
        {
          "internalType": "string",
          "name": "_name",
          "type": "string"
        },
        {
          "internalType": "string",
          "name": "_course",
          "type": "string"
        },
        {
          "internalType": "string",
          "name": "_ipfsHash",
          "type": "string"
        }
      ],
      "name": "issueCertificate",
      "outputs": [],
      "stateMutability": "nonpayable",
      "type": "function"
    },
    {
      "inputs": [
        {
          "internalType": "uint256",
          "name": "_id",
          "type": "uint256"
        }
      ],
      "name": "getCertificate",
      "outputs": [
        {
          "internalType": "string",
          "name": "",
          "type": "string"
        },
        {
          "internalType": "string",
          "name": "",
          "type": "string"
        },
        {
          "internalType": "string",
          "name": "",
          "type": "string"
        }
      ],
      "stateMutability": "view",
      "type": "function"
    }
  ],
  "bytecode": "0x6080604052348015600e575f80fd5b50610c728061001c5f395ff3fe608060405234801561000f575f80fd5b506004361061004a575f3560e01c806351640fee1461004e5780635f7e359b14610080578063663b3e221461009e578063beec1caa146100d1575b5f80fd5b610068600480360381019061006391906105ca565b6100ed565b60405161007793929190610665565b60405180910390f35b6100886102e6565b60405161009591906106be565b60405180910390f35b6100b860048036038101906100b391906105ca565b6102ec565b6040516100c894939291906106d7565b60405180910390f35b6100eb60048036038101906100e6919061085b565b6104a9565b005b60608060605f805f8681526020019081526020015f206040518060800160405290815f82015481526020016001820180546101279061092c565b80601f01602080910402602001604051908101604052809291908181526020018280546101539061092c565b801561019e5780601f106101755761010080835404028352916020019161019e565b820191905f5260205f20905b81548152906001019060200180831161018157829003601f168201915b505050505081526020016002820180546101b79061092c565b80601f01602080910402602001604051908101604052809291908181526020018280546101e39061092c565b801561022e5780601f106102055761010080835404028352916020019161022e565b820191905f5260205f20905b81548152906001019060200180831161021157829003601f168201915b505050505081526020016003820180546102479061092c565b80601f01602080910402602001604051908101604052809291908181526020018280546102739061092c565b80156102be5780601f10610295576101008083540402835291602001916102be565b820191905f5260205f20905b8154815290600101906020018083116102a157829003601f168201915b5050505050815250509050806020015181604001518260600151935093509350509193909250565b60015481565b5f602052805f5260405f205f91509050805f0154908060010180546103109061092c565b80601f016020809104026020016040519081016040528092919081815260200182805461033c9061092c565b80156103875780601f1061035e57610100808354040283529160200191610387565b820191905f5260205f20905b81548152906001019060200180831161036a57829003601f168201915b50505050509080600201805461039c9061092c565b80601f01602080910402602001604051908101604052809291908181526020018280546103c89061092c565b80156104135780601f106103ea57610100808354040283529160200191610413565b820191905f5260205f20905b8154815290600101906020018083116103f657829003601f168201915b5050505050908060030180546104289061092c565b80601f01602080910402602001604051908101604052809291908181526020018280546104549061092c565b801561049f5780601f106104765761010080835404028352916020019161049f565b820191905f5260205f20905b81548152906001019060200180831161048257829003601f168201915b5050505050905084565b60015f8154809291906104bb90610989565b919050555060405180608001604052806001548152602001848152602001838152602001828152505f8060015481526020019081526020015f205f820151815f015560208201518160010190816105129190610b6d565b5060408201518160020190816105289190610b6d565b50606082015181600301908161053e9190610b6d565b509050507f95ad50d6596337460bdce4b8db70313463e0615be9266b573e781327aef44e0960015484848460405161057994939291906106d7565b60405180910390a1505050565b5f604051905090565b5f80fd5b5f80fd5b5f819050919050565b6105a981610597565b81146105b3575f80fd5b50565b5f813590506105c4816105a0565b92915050565b5f602082840312156105df576105de61058f565b5b5f6105ec848285016105b6565b91505092915050565b5f81519050919050565b5f82825260208201905092915050565b8281835e5f83830152505050565b5f601f19601f8301169050919050565b5f610637826105f5565b61064181856105ff565b935061065181856020860161060f565b61065a8161061d565b840191505092915050565b5f6060820190508181035f83015261067d818661062d565b90508181036020830152610691818561062d565b905081810360408301526106a5818461062d565b9050949350505050565b6106b881610597565b82525050565b5f6020820190506106d15f8301846106af565b92915050565b5f6080820190506106ea5f8301876106af565b81810360208301526106fc818661062d565b90508181036040830152610710818561062d565b90508181036060830152610724818461062d565b905095945050505050565b5f80fd5b5f80fd5b7f4e487b71000000000000000000000000000000000000000000000000000000005f52604160045260245ffd5b61076d8261061d565b810181811067ffffffffffffffff8211171561078c5761078b610737565b5b80604052505050565b5f61079e610586565b90506107aa8282610764565b919050565b5f67ffffffffffffffff8211156107c9576107c8610737565b5b6107d28261061d565b9050602081019050919050565b828183375f83830152505050565b5f6107ff6107fa846107af565b610795565b90508281526020810184848401111561081b5761081a610733565b5b6108268482856107df565b509392505050565b5f82601f8301126108425761084161072f565b5b81356108528482602086016107ed565b91505092915050565b5f805f606084860312156108725761087161058f565b5b5f84013567ffffffffffffffff81111561088f5761088e610593565b5b61089b8682870161082e565b935050602084013567ffffffffffffffff8111156108bc576108bb610593565b5b6108c88682870161082e565b925050604084013567ffffffffffffffff8111156108e9576108e8610593565b5b6108f58682870161082e565b9150509250925092565b7f4e487b71000000000000000000000000000000000000000000000000000000005f52602260045260245ffd5b5f600282049050600182168061094357607f821691505b602082108103610956576109556108ff565b5b50919050565b7f4e487b71000000000000000000000000000000000000000000000000000000005f52601160045260245ffd5b5f61099382610597565b91507fffffffffffffffffffffffffffffffffffffffffffffffffffffffffffffffff82036109c5576109c461095c565b5b600182019050919050565b5f819050815f5260205f209050919050565b5f6020601f8301049050919050565b5f82821b905092915050565b5f60088302610a2c7fffffffffffffffffffffffffffffffffffffffffffffffffffffffffffffffff826109f1565b610a3686836109f1565b95508019841693508086168417925050509392505050565b5f819050919050565b5f610a71610a6c610a6784610597565b610a4e565b610597565b9050919050565b5f819050919050565b610a8a83610a57565b610a9e610a9682610a78565b8484546109fd565b825550505050565b5f90565b610ab2610aa6565b610abd818484610a81565b505050565b5b81811015610ae057610ad55f82610aaa565b600181019050610ac3565b5050565b601f821115610b2557610af6816109d0565b610aff846109e2565b81016020851015610b0e578190505b610b22610b1a856109e2565b830182610ac2565b50505b505050565b5f82821c905092915050565b5f610b455f1984600802610b2a565b1980831691505092915050565b5f610b5d8383610b36565b9150826002028217905092915050565b610b76826105f5565b67ffffffffffffffff811115610b8f57610b8e610737565b5b610b99825461092c565b610ba4828285610ae4565b5f60209050601f831160018114610bd5575f8415610bc3578287015190505b610bcd8582610b52565b865550610c34565b601f198416610be3866109d0565b5f5b82811015610c0a57848901518255600182019150602085019450602081019050610be5565b86831015610c275784890151610c23601f891682610b36565b8355505b6001600288020188555050505b50505050505056fea26469706673582212200aaf1502d850209447ac1e8660790a7f18229488799ff564d67ccfc87d90039464736f6c634300081a0033",
  "immutableReferences": {},
  "source": "// SPDX-License-Identifier: MIT\r\npragma solidity ^0.8.21;\r\n\r\ncontract Certificate {\r\n    struct Cert {\r\n        uint256 id;\r\n        string name;\r\n        string course;\r\n        string ipfsHash;\r\n    }\r\n\r\n    mapping(uint256 => Cert) public certificates;\r\n    uint256 public certCounter;\r\n\r\n    event CertificateIssued(uint256 id, string name, string course, string ipfsHash);\r\n\r\n    function issueCertificate(string memory _name, string memory _course, string memory _ipfsHash) public {\r\n        certCounter++;\r\n        certificates[certCounter] = Cert(certCounter, _name, _course, _ipfsHash);\r\n        emit CertificateIssued(certCounter, _name, _course, _ipfsHash);\r\n    }\r\n\r\n    function getCertificate(uint256 _id) public view returns (string memory, string memory, string memory) {\r\n        Cert memory cert = certificates[_id];\r\n        return (cert.name, cert.course, cert.ipfsHash);\r\n    }\r\n}\r\n",
  "sourcePath": "C:\\Users\\DELL\\certification_dapp\\contracts\\Certificate.sol",
  "compiler": {
    "name": "solc",
    "version": "0.8.26+commit.8a97fa7a.Emscripten.clang"
  },
  "schemaVersion": "3.4.16",
  "updatedAt": "2024-08-29T12:38:35.212Z",
  "devdoc": {
    "kind": "dev",
    "methods": {},
    "version": 1
  },
  "userdoc": {
    "kind": "user",
    "methods": {},
    "version": 1
  }
}